{
    "abi": [
        {
            "type": "constructor",
            "inputs": [
                {
                    "name": "_root",
                    "type": "bytes32",
                    "internalType": "bytes32"
                }
            ],
            "stateMutability": "nonpayable"
        },
        {
            "type": "function",
            "name": "verify",
            "inputs": [
                {
                    "name": "proof",
                    "type": "bytes32[]",
                    "internalType": "bytes32[]"
                },
                {
                    "name": "addr",
                    "type": "address",
                    "internalType": "address"
                },
                {
                    "name": "amount",
                    "type": "uint256",
                    "internalType": "uint256"
                }
            ],
            "outputs": [],
            "stateMutability": "view"
        },
        {
            "type": "function",
            "name": "verify",
            "inputs": [
                {
                    "name": "proof",
                    "type": "bytes32[]",
                    "internalType": "bytes32[]"
                },
                {
                    "name": "addr",
                    "type": "address",
                    "internalType": "address"
                }
            ],
            "outputs": [],
            "stateMutability": "view"
        },
        {
            "type": "function",
            "name": "verify",
            "inputs": [
                {
                    "name": "proof",
                    "type": "bytes32[]",
                    "internalType": "bytes32[]"
                },
                {
                    "name": "leaf",
                    "type": "bytes32",
                    "internalType": "bytes32"
                }
            ],
            "outputs": [],
            "stateMutability": "view"
        },
        {
            "type": "function",
            "name": "verifyAccountProof",
            "inputs": [
                {
                    "name": "rootArg",
                    "type": "bytes32",
                    "internalType": "bytes32"
                },
                {
                    "name": "proof",
                    "type": "bytes32[]",
                    "internalType": "bytes32[]"
                },
                {
                    "name": "accountId",
                    "type": "bytes32",
                    "internalType": "bytes32"
                },
                {
                    "name": "freeBalance",
                    "type": "uint128",
                    "internalType": "uint128"
                }
            ],
            "outputs": [],
            "stateMutability": "view"
        },
        {
            "type": "function",
            "name": "verifyCommitmentProof",
            "inputs": [
                {
                    "name": "rootArg",
                    "type": "bytes32",
                    "internalType": "bytes32"
                },
                {
                    "name": "proof",
                    "type": "bytes32[]",
                    "internalType": "bytes32[]"
                },
                {
                    "name": "name",
                    "type": "bytes",
                    "internalType": "bytes"
                },
                {
                    "name": "namespace",
                    "type": "bytes",
                    "internalType": "bytes"
                },
                {
                    "name": "scheme",
                    "type": "bytes1",
                    "internalType": "bytes1"
                },
                {
                    "name": "commitment",
                    "type": "bytes",
                    "internalType": "bytes"
                }
            ],
            "outputs": [],
            "stateMutability": "view"
        },
        {
            "type": "function",
            "name": "verifyStateRootSignature",
            "inputs": [
                {
                    "name": "treeRoot",
                    "type": "bytes32",
                    "internalType": "bytes32"
                },
                {
                    "name": "blockNumber",
                    "type": "uint32",
                    "internalType": "uint32"
                },
                {
                    "name": "v",
                    "type": "uint8",
                    "internalType": "uint8"
                },
                {
                    "name": "r",
                    "type": "bytes32",
                    "internalType": "bytes32"
                },
                {
                    "name": "s",
                    "type": "bytes32",
                    "internalType": "bytes32"
                },
                {
                    "name": "expectedAddress",
                    "type": "address",
                    "internalType": "address"
                }
            ],
            "outputs": [],
            "stateMutability": "pure"
        },
        {
            "type": "function",
            "name": "verifyWithRoot",
            "inputs": [
                {
                    "name": "proof",
                    "type": "bytes32[]",
                    "internalType": "bytes32[]"
                },
                {
                    "name": "leaf",
                    "type": "bytes32",
                    "internalType": "bytes32"
                },
                {
                    "name": "rootArg",
                    "type": "bytes32",
                    "internalType": "bytes32"
                }
            ],
            "outputs": [],
            "stateMutability": "pure"
        }
    ],
    "bytecode": {
        "object": "0x6080604052348015600e575f5ffd5b50604051610a10380380610a10833981016040819052602b916031565b5f556047565b5f602082840312156040575f5ffd5b5051919050565b6109bc806100545f395ff3fe608060405234801561000f575f5ffd5b506004361061007a575f3560e01c80637b3e43be116100585780637b3e43be146100b957806396ccc330146100cc578063972a2a62146100df5780639b41e7ca146100f2575f5ffd5b806304b38ce01461007e578063659a1026146100935780636d0fbc7f146100a6575b5f5ffd5b61009161008c36600461059e565b610105565b005b6100916100a13660046105f1565b610172565b6100916100b436600461063c565b6101d8565b6100916100c73660046106af565b610267565b6100916100da36600461079e565b61038f565b6100916100ed36600461086f565b610405565b6100916101003660046108b1565b610431565b604080516001600160a01b03841660208201529081018290525f90606001604051602081830303815290604052805190602001209050610147845f5483610438565b61016c5760405162461bcd60e51b8152600401610163906108fb565b60405180910390fd5b50505050565b6040516bffffffffffffffffffffffff19606083901b1660208201525f906034016040516020818303038152906040528051906020012090506101b7835f5483610438565b6101d35760405162461bcd60e51b8152600401610163906108fb565b505050565b5f828260405160200161020b92919091825260801b6fffffffffffffffffffffffffffffffff1916602082015260300190565b60405160208183030381529060405290505f818051906020012090505f8160405160200161023b91815260200190565b60405160208183030381529060405280519060200120905061025e868289610431565b50505050505050565b6040517f19457468657265756d205369676e6564204d6573736167653a0a3336000000006020820152603c81018790526001600160e01b031960e087901b16605c8201525f9060600160408051601f1981840301815282825280516020918201205f80855291840180845281905260ff89169284019290925260608301879052608083018690529092509060019060a0016020604051602081039080840390855afa158015610318573d5f5f3e3d5ffd5b505050602060405103519050826001600160a01b0316816001600160a01b0316146103855760405162461bcd60e51b815260206004820152601960248201527f496e76616c69642061646472657373207265636f7665726564000000000000006044820152606401610163565b5050505050505050565b5f848484846040516020016103a79493929190610939565b60405160208183030381529060405290505f818051906020012090505f816040516020016103d791815260200190565b6040516020818303038152906040528051906020012090506103fa88828b610431565b505050505050505050565b610411825f5483610438565b61042d5760405162461bcd60e51b8152600401610163906108fb565b5050565b6101b78382845b5f82610444858461044d565b14949350505050565b5f81815b84518110156104875761047d8286838151811061047057610470610972565b602002602001015161048f565b9150600101610451565b509392505050565b5f8183106104a9575f8281526020849052604090206104b7565b5f8381526020839052604090205b9392505050565b634e487b7160e01b5f52604160045260245ffd5b604051601f8201601f1916810167ffffffffffffffff811182821017156104fb576104fb6104be565b604052919050565b5f82601f830112610512575f5ffd5b813567ffffffffffffffff81111561052c5761052c6104be565b8060051b61053c602082016104d2565b91825260208185018101929081019086841115610557575f5ffd5b6020860192505b8383101561057957823582526020928301929091019061055e565b9695505050505050565b80356001600160a01b0381168114610599575f5ffd5b919050565b5f5f5f606084860312156105b0575f5ffd5b833567ffffffffffffffff8111156105c6575f5ffd5b6105d286828701610503565b9350506105e160208501610583565b9150604084013590509250925092565b5f5f60408385031215610602575f5ffd5b823567ffffffffffffffff811115610618575f5ffd5b61062485828601610503565b92505061063360208401610583565b90509250929050565b5f5f5f5f6080858703121561064f575f5ffd5b84359350602085013567ffffffffffffffff81111561066c575f5ffd5b61067887828801610503565b9350506040850135915060608501356fffffffffffffffffffffffffffffffff811681146106a4575f5ffd5b939692955090935050565b5f5f5f5f5f5f60c087890312156106c4575f5ffd5b86359550602087013563ffffffff811681146106de575f5ffd5b9450604087013560ff811681146106f3575f5ffd5b9350606087013592506080870135915061070f60a08801610583565b90509295509295509295565b5f82601f83011261072a575f5ffd5b813567ffffffffffffffff811115610744576107446104be565b610757601f8201601f19166020016104d2565b81815284602083860101111561076b575f5ffd5b816020850160208301375f918101602001919091529392505050565b80356001600160f81b031981168114610599575f5ffd5b5f5f5f5f5f5f60c087890312156107b3575f5ffd5b86359550602087013567ffffffffffffffff8111156107d0575f5ffd5b6107dc89828a01610503565b955050604087013567ffffffffffffffff8111156107f8575f5ffd5b61080489828a0161071b565b945050606087013567ffffffffffffffff811115610820575f5ffd5b61082c89828a0161071b565b93505061083b60808801610787565b915060a087013567ffffffffffffffff811115610856575f5ffd5b61086289828a0161071b565b9150509295509295509295565b5f5f60408385031215610880575f5ffd5b823567ffffffffffffffff811115610896575f5ffd5b6108a285828601610503565b95602094909401359450505050565b5f5f5f606084860312156108c3575f5ffd5b833567ffffffffffffffff8111156108d9575f5ffd5b6108e586828701610503565b9660208601359650604090950135949350505050565b6020808252600d908201526c24b73b30b634b210383937b7b360991b604082015260600190565b5f81518060208401855e5f93019283525090919050565b5f61094d6109478388610922565b86610922565b6001600160f81b0319851681526109676001820185610922565b979650505050505050565b634e487b7160e01b5f52603260045260245ffdfea2646970667358221220b7e89efc21ba7be166b596d7f8b086e590380b276ce1ddd65e5d55c28c77444064736f6c634300081c0033",
        "linkReferences": {}
    },
    "methodIdentifiers": {
        "verify(bytes32[],address)": "659a1026",
        "verify(bytes32[],address,uint256)": "04b38ce0",
        "verify(bytes32[],bytes32)": "972a2a62",
        "verifyAccountProof(bytes32,bytes32[],bytes32,uint128)": "6d0fbc7f",
        "verifyCommitmentProof(bytes32,bytes32[],bytes,bytes,bytes1,bytes)": "96ccc330",
        "verifyStateRootSignature(bytes32,uint32,uint8,bytes32,bytes32,address)": "7b3e43be",
        "verifyWithRoot(bytes32[],bytes32,bytes32)": "9b41e7ca"
    },
    "id": 24
}